{
  "_format": "hh-sol-artifact-1",
  "contractName": "NotificationContract",
  "sourceName": "contracts/NotificationContract.sol",
  "abi": [
    {
      "anonymous": false,
      "inputs": [
        {
          "indexed": true,
          "internalType": "address",
          "name": "user",
          "type": "address"
        },
        {
          "indexed": false,
          "internalType": "string",
          "name": "message",
          "type": "string"
        }
      ],
      "name": "NotificationSent",
      "type": "event"
    },
    {
      "inputs": [
        {
          "internalType": "string",
          "name": "message",
          "type": "string"
        }
      ],
      "name": "sendNotification",
      "outputs": [],
      "stateMutability": "nonpayable",
      "type": "function"
    }
  ],
  "bytecode": "0x608060405234801561001057600080fd5b5061015d806100206000396000f3fe608060405234801561001057600080fd5b506004361061002b5760003560e01c80631a10a41214610030575b600080fd5b6100a76004803603602081101561004657600080fd5b810190808035906020019064010000000081111561006357600080fd5b82018360208201111561007557600080fd5b8035906020019184600183028401116401000000008311171561009757600080fd5b90919293919293905050506100a9565b005b3373ffffffffffffffffffffffffffffffffffffffff167f2a7838cbc4deb7bf40319be175f9abfbd110b62bcdfd6dea91b9d3fc6b5db2d3838360405180806020018281038252848482818152602001925080828437600081840152601f19601f820116905080830192505050935050505060405180910390a2505056fea2646970667358221220a2bc16bc46d4f0cf2ec5815864b7632389c20cc4839d9d4184f80b2a31e5ffc464736f6c63430007030033",
  "linkReferences": {},
  "deployedLinkReferences": {}
}