{
  "_format": "hh-sol-artifact-1",
  "contractName": "SendAndRecieve",
  "sourceName": "contracts/SendAndRecieve.sol",
  "abi": [
    {
      "anonymous": false,
      "inputs": [
        {
          "indexed": true,
          "internalType": "address",
          "name": "sender",
          "type": "address"
        },
        {
          "indexed": true,
          "internalType": "address",
          "name": "receiver",
          "type": "address"
        },
        {
          "indexed": false,
          "internalType": "uint256",
          "name": "amount",
          "type": "uint256"
        },
        {
          "indexed": false,
          "internalType": "uint256",
          "name": "timestamp",
          "type": "uint256"
        }
      ],
      "name": "PaymentSent",
      "type": "event"
    },
    {
      "inputs": [
        {
          "internalType": "address",
          "name": "",
          "type": "address"
        }
      ],
      "name": "balances",
      "outputs": [
        {
          "internalType": "uint256",
          "name": "",
          "type": "uint256"
        }
      ],
      "stateMutability": "view",
      "type": "function"
    },
    {
      "inputs": [],
      "name": "getBalance",
      "outputs": [
        {
          "internalType": "uint256",
          "name": "",
          "type": "uint256"
        }
      ],
      "stateMutability": "view",
      "type": "function"
    },
    {
      "inputs": [
        {
          "internalType": "uint256",
          "name": "_index",
          "type": "uint256"
        }
      ],
      "name": "getTransaction",
      "outputs": [
        {
          "internalType": "address",
          "name": "",
          "type": "address"
        },
        {
          "internalType": "address",
          "name": "",
          "type": "address"
        },
        {
          "internalType": "uint256",
          "name": "",
          "type": "uint256"
        },
        {
          "internalType": "uint256",
          "name": "",
          "type": "uint256"
        }
      ],
      "stateMutability": "view",
      "type": "function"
    },
    {
      "inputs": [],
      "name": "getTransactionHistoryLength",
      "outputs": [
        {
          "internalType": "uint256",
          "name": "",
          "type": "uint256"
        }
      ],
      "stateMutability": "view",
      "type": "function"
    },
    {
      "inputs": [
        {
          "internalType": "address",
          "name": "_receiver",
          "type": "address"
        },
        {
          "internalType": "uint256",
          "name": "_amount",
          "type": "uint256"
        }
      ],
      "name": "sendPayment",
      "outputs": [],
      "stateMutability": "nonpayable",
      "type": "function"
    },
    {
      "inputs": [
        {
          "internalType": "uint256",
          "name": "",
          "type": "uint256"
        }
      ],
      "name": "transactionHistory",
      "outputs": [
        {
          "internalType": "address",
          "name": "sender",
          "type": "address"
        },
        {
          "internalType": "address",
          "name": "receiver",
          "type": "address"
        },
        {
          "internalType": "uint256",
          "name": "amount",
          "type": "uint256"
        },
        {
          "internalType": "uint256",
          "name": "timestamp",
          "type": "uint256"
        }
      ],
      "stateMutability": "view",
      "type": "function"
    }
  ],
  "bytecode": "0x608060405234801561001057600080fd5b50610a45806100206000396000f3fe608060405234801561001057600080fd5b50600436106100625760003560e01c806312065fe014610067578063243e7a871461008557806327e235e3146100b857806333ea3dc8146100e8578063935f4c181461011b5780639f71c3c914610137575b600080fd5b61006f610155565b60405161007c919061081c565b60405180910390f35b61009f600480360381019061009a91906106c7565b61019b565b6040516100af9493929190610777565b60405180910390f35b6100d260048036038101906100cd9190610662565b61021b565b6040516100df919061081c565b60405180910390f35b61010260048036038101906100fd91906106c7565b610233565b6040516101129493929190610777565b60405180910390f35b6101356004803603810190610130919061068b565b610330565b005b61013f61062b565b60405161014c919061081c565b60405180910390f35b60008060003373ffffffffffffffffffffffffffffffffffffffff1673ffffffffffffffffffffffffffffffffffffffff16815260200190815260200160002054905090565b600181815481106101ab57600080fd5b90600052602060002090600402016000915090508060000160009054906101000a900473ffffffffffffffffffffffffffffffffffffffff16908060010160009054906101000a900473ffffffffffffffffffffffffffffffffffffffff16908060020154908060030154905084565b60006020528060005260406000206000915090505481565b6000806000806001805490508510610280576040517f08c379a0000000000000000000000000000000000000000000000000000000008152600401610277906107fc565b60405180910390fd5b6000600186815481106102bc577f4e487b7100000000000000000000000000000000000000000000000000000000600052603260045260246000fd5b906000526020600020906004020190508060000160009054906101000a900473ffffffffffffffffffffffffffffffffffffffff168160010160009054906101000a900473ffffffffffffffffffffffffffffffffffffffff16826002015483600301549450945094509450509193509193565b60008111610373576040517f08c379a000000000000000000000000000000000000000000000000000000000815260040161036a906107bc565b60405180910390fd5b806000803373ffffffffffffffffffffffffffffffffffffffff1673ffffffffffffffffffffffffffffffffffffffff1681526020019081526020016000205410156103f4576040517f08c379a00000000000000000000000000000000000000000000000000000000081526004016103eb906107dc565b60405180910390fd5b806000803373ffffffffffffffffffffffffffffffffffffffff1673ffffffffffffffffffffffffffffffffffffffff168152602001908152602001600020600082825461044291906108c7565b92505081905550806000808473ffffffffffffffffffffffffffffffffffffffff1673ffffffffffffffffffffffffffffffffffffffff16815260200190815260200160002060008282546104979190610871565b92505081905550600060405180608001604052803373ffffffffffffffffffffffffffffffffffffffff1681526020018473ffffffffffffffffffffffffffffffffffffffff168152602001838152602001428152509050600181908060018154018082558091505060019003906000526020600020906004020160009091909190915060008201518160000160006101000a81548173ffffffffffffffffffffffffffffffffffffffff021916908373ffffffffffffffffffffffffffffffffffffffff16021790555060208201518160010160006101000a81548173ffffffffffffffffffffffffffffffffffffffff021916908373ffffffffffffffffffffffffffffffffffffffff160217905550604082015181600201556060820151816003015550508273ffffffffffffffffffffffffffffffffffffffff163373ffffffffffffffffffffffffffffffffffffffff167f6af891475b82ff839770dcb2e5b7c10771f7b8058868dd11aa25d9187fd14235844260405161061e929190610837565b60405180910390a3505050565b6000600180549050905090565b600081359050610647816109e1565b92915050565b60008135905061065c816109f8565b92915050565b60006020828403121561067457600080fd5b600061068284828501610638565b91505092915050565b6000806040838503121561069e57600080fd5b60006106ac85828601610638565b92505060206106bd8582860161064d565b9150509250929050565b6000602082840312156106d957600080fd5b60006106e78482850161064d565b91505092915050565b6106f9816108fb565b82525050565b600061070c601d83610860565b915061071782610966565b602082019050919050565b600061072f601483610860565b915061073a8261098f565b602082019050919050565b6000610752601383610860565b915061075d826109b8565b602082019050919050565b6107718161092d565b82525050565b600060808201905061078c60008301876106f0565b61079960208301866106f0565b6107a66040830185610768565b6107b36060830184610768565b95945050505050565b600060208201905081810360008301526107d5816106ff565b9050919050565b600060208201905081810360008301526107f581610722565b9050919050565b6000602082019050818103600083015261081581610745565b9050919050565b60006020820190506108316000830184610768565b92915050565b600060408201905061084c6000830185610768565b6108596020830184610768565b9392505050565b600082825260208201905092915050565b600061087c8261092d565b91506108878361092d565b9250827fffffffffffffffffffffffffffffffffffffffffffffffffffffffffffffffff038211156108bc576108bb610937565b5b828201905092915050565b60006108d28261092d565b91506108dd8361092d565b9250828210156108f0576108ef610937565b5b828203905092915050565b60006109068261090d565b9050919050565b600073ffffffffffffffffffffffffffffffffffffffff82169050919050565b6000819050919050565b7f4e487b7100000000000000000000000000000000000000000000000000000000600052601160045260246000fd5b7f416d6f756e74206d7573742062652067726561746572207468616e2030000000600082015250565b7f496e73756666696369656e742062616c616e6365000000000000000000000000600082015250565b7f496e646578206f7574206f6620626f756e647300000000000000000000000000600082015250565b6109ea816108fb565b81146109f557600080fd5b50565b610a018161092d565b8114610a0c57600080fd5b5056fea2646970667358221220b8ec49fa49d408cd7b9d74795c383684154665b9332d78a3daa615b4513ce2d164736f6c63430008040033",
  "linkReferences": {},
  "deployedLinkReferences": {}
}