{
  "_format": "hh-sol-artifact-1",
  "contractName": "SendAndRecieve.ovm",
  "sourceName": "contracts/SendAndRecieve.sol",
  "abi": [
    {
      "anonymous": false,
      "inputs": [
        {
          "indexed": true,
          "internalType": "address",
          "name": "sender",
          "type": "address"
        },
        {
          "indexed": true,
          "internalType": "address",
          "name": "receiver",
          "type": "address"
        },
        {
          "indexed": false,
          "internalType": "uint256",
          "name": "amount",
          "type": "uint256"
        },
        {
          "indexed": false,
          "internalType": "uint256",
          "name": "timestamp",
          "type": "uint256"
        }
      ],
      "name": "PaymentSent",
      "type": "event"
    },
    {
      "inputs": [
        {
          "internalType": "address",
          "name": "",
          "type": "address"
        }
      ],
      "name": "balances",
      "outputs": [
        {
          "internalType": "uint256",
          "name": "",
          "type": "uint256"
        }
      ],
      "stateMutability": "view",
      "type": "function"
    },
    {
      "inputs": [],
      "name": "getBalance",
      "outputs": [
        {
          "internalType": "uint256",
          "name": "",
          "type": "uint256"
        }
      ],
      "stateMutability": "view",
      "type": "function"
    },
    {
      "inputs": [
        {
          "internalType": "uint256",
          "name": "_index",
          "type": "uint256"
        }
      ],
      "name": "getTransaction",
      "outputs": [
        {
          "internalType": "address",
          "name": "",
          "type": "address"
        },
        {
          "internalType": "address",
          "name": "",
          "type": "address"
        },
        {
          "internalType": "uint256",
          "name": "",
          "type": "uint256"
        },
        {
          "internalType": "uint256",
          "name": "",
          "type": "uint256"
        }
      ],
      "stateMutability": "view",
      "type": "function"
    },
    {
      "inputs": [],
      "name": "getTransactionHistoryLength",
      "outputs": [
        {
          "internalType": "uint256",
          "name": "",
          "type": "uint256"
        }
      ],
      "stateMutability": "view",
      "type": "function"
    },
    {
      "inputs": [
        {
          "internalType": "address",
          "name": "_receiver",
          "type": "address"
        },
        {
          "internalType": "uint256",
          "name": "_amount",
          "type": "uint256"
        }
      ],
      "name": "sendPayment",
      "outputs": [],
      "stateMutability": "nonpayable",
      "type": "function"
    },
    {
      "inputs": [
        {
          "internalType": "uint256",
          "name": "",
          "type": "uint256"
        }
      ],
      "name": "transactionHistory",
      "outputs": [
        {
          "internalType": "address",
          "name": "sender",
          "type": "address"
        },
        {
          "internalType": "address",
          "name": "receiver",
          "type": "address"
        },
        {
          "internalType": "uint256",
          "name": "amount",
          "type": "uint256"
        },
        {
          "internalType": "uint256",
          "name": "timestamp",
          "type": "uint256"
        }
      ],
      "stateMutability": "view",
      "type": "function"
    }
  ],
  "bytecode": "0x60806040523480156100195760008061001661001f565b50505b5061008d565b632a2a7adb598160e01b8152600481016020815285602082015260005b8681101561005a57808601518160408401015260208101905061003c565b506020828760640184336000905af158600e01573d6000803e3d6000fd5b3d6001141558600a015760016000f35b505050565b610b2d8061009c6000396000f3fe6080604052348015610019576000806100166108e9565b50505b506004361061006b5760003560e01c806312065fe014610079578063243e7a871461009757806327e235e31461012357806333ea3dc814610184578063935f4c18146102105780639f71c3c914610267575b6000806100766108e9565b50505b610081610285565b6040518082815260200191505060405180910390f35b6100cc600480360360208110156100b6576000806100b36108e9565b50505b81019080803590602001909291905050506102da565b604051808573ffffffffffffffffffffffffffffffffffffffff1681526020018473ffffffffffffffffffffffffffffffffffffffff16815260200183815260200182815260200194505050505060405180910390f35b61016e600480360360208110156101425760008061013f6108e9565b50505b81019080803573ffffffffffffffffffffffffffffffffffffffff16906020019092919050505061037a565b6040518082815260200191505060405180910390f35b6101b9600480360360208110156101a3576000806101a06108e9565b50505b8101908080359060200190929190505050610399565b604051808573ffffffffffffffffffffffffffffffffffffffff1681526020018473ffffffffffffffffffffffffffffffffffffffff16815260200183815260200182815260200194505050505060405180910390f35b6102656004803603604081101561022f5760008061022c6108e9565b50505b81019080803573ffffffffffffffffffffffffffffffffffffffff169060200190929190803590602001909291905050506104cf565b005b61026f6108d5565b6040518082815260200191505060405180910390f35b60008060005a610293610957565b73ffffffffffffffffffffffffffffffffffffffff1673ffffffffffffffffffffffffffffffffffffffff1681526020019081526020016000206102d56109b4565b905090565b600181816102e66109b4565b81106102ee57fe5b9060005260206000209060040201600091509050806000016000906103116109b4565b906101000a900473ffffffffffffffffffffffffffffffffffffffff16908060010160009061033e6109b4565b906101000a900473ffffffffffffffffffffffffffffffffffffffff1690806002016103686109b4565b90806003016103756109b4565b905084565b60006020528060005260406000206000915090506103966109b4565b81565b6000806000806001806103aa6109b4565b90508510610429576040517f08c379a00000000000000000000000000000000000000000000000000000000081526004018080602001828103825260138152602001807f496e646578206f7574206f6620626f756e647300000000000000000000000000815250602001915050604051809103906104266108e9565b50505b6000600186816104376109b4565b811061043f57fe5b906000526020600020906004020190508060000160009061045e6109b4565b906101000a900473ffffffffffffffffffffffffffffffffffffffff168160010160009061048a6109b4565b906101000a900473ffffffffffffffffffffffffffffffffffffffff16826002016104b36109b4565b836003016104bf6109b4565b9450945094509450509193509193565b6000811161054e576040517f08c379a000000000000000000000000000000000000000000000000000000000815260040180806020018281038252601d8152602001807f416d6f756e74206d7573742062652067726561746572207468616e20300000008152506020019150506040518091039061054b6108e9565b50505b806000805a61055b610957565b73ffffffffffffffffffffffffffffffffffffffff1673ffffffffffffffffffffffffffffffffffffffff16815260200190815260200160002061059d6109b4565b101561061a576040517f08c379a00000000000000000000000000000000000000000000000000000000081526004018080602001828103825260148152602001807f496e73756666696369656e742062616c616e6365000000000000000000000000815250602001915050604051809103906106176108e9565b50505b806000805a610627610957565b73ffffffffffffffffffffffffffffffffffffffff1673ffffffffffffffffffffffffffffffffffffffff1681526020019081526020016000206000828261066d6109b4565b03925050819061067b610a17565b505050806000808473ffffffffffffffffffffffffffffffffffffffff1673ffffffffffffffffffffffffffffffffffffffff168152602001908152602001600020600082826106c96109b4565b0192505081906106d7610a17565b5050506106e2610a7c565b60405180608001604052805a6106f6610957565b73ffffffffffffffffffffffffffffffffffffffff1681526020018473ffffffffffffffffffffffffffffffffffffffff1681526020018381526020015a61073c610ad0565b815250905060018190806001816107516109b4565b01808261075c610a17565b50508091505060019003906000526020600020906004020160009091909190915060008201518160000160006101000a816107956109b4565b8173ffffffffffffffffffffffffffffffffffffffff021916908373ffffffffffffffffffffffffffffffffffffffff160217906107d1610a17565b50505060208201518160010160006101000a816107ec6109b4565b8173ffffffffffffffffffffffffffffffffffffffff021916908373ffffffffffffffffffffffffffffffffffffffff16021790610828610a17565b50505060408201518160020161083c610a17565b505060608201518160030161084f610a17565b505050508273ffffffffffffffffffffffffffffffffffffffff165a610873610957565b73ffffffffffffffffffffffffffffffffffffffff167f6af891475b82ff839770dcb2e5b7c10771f7b8058868dd11aa25d9187fd14235845a6108b4610ad0565b604051808381526020018281526020019250505060405180910390a3505050565b60006001806108e26109b4565b9050905090565b632a2a7adb598160e01b8152600481016020815285602082015260005b86811015610924578086015181604084010152602081019050610906565b506020828760640184336000905af158600e01573d6000803e3d6000fd5b3d6001141558600a015760016000f35b505050565b6373509064598160e01b8152602081600483336000905af158600e01573d6000803e3d6000fd5b3d6001141558600a015760016000f35b8051935060005b60408110156109af57600081830152602081019050610995565b505050565b6303daa959598160e01b8152836004820152602081602483336000905af158600e01573d6000803e3d6000fd5b3d6001141558600a015760016000f35b8051935060005b6040811015610a12576000818301526020810190506109f8565b505050565b6322bd64c0598160e01b8152836004820152846024820152600081604483336000905af158600e01573d6000803e3d6000fd5b3d6001141558600a015760016000f35b60005b6040811015610a7757600081830152602081019050610a5d565b505050565b6040518060800160405280600073ffffffffffffffffffffffffffffffffffffffff168152602001600073ffffffffffffffffffffffffffffffffffffffff16815260200160008152602001600081525090565b63bdbf8c36598160e01b8152602081600483336000905af158600e01573d6000803e3d6000fd5b3d6001141558600a015760016000f35b8051935060005b6040811015610b2857600081830152602081019050610b0e565b50505056",
  "deployedBytecode": "0x6080604052348015610019576000806100166108e9565b50505b506004361061006b5760003560e01c806312065fe014610079578063243e7a871461009757806327e235e31461012357806333ea3dc814610184578063935f4c18146102105780639f71c3c914610267575b6000806100766108e9565b50505b610081610285565b6040518082815260200191505060405180910390f35b6100cc600480360360208110156100b6576000806100b36108e9565b50505b81019080803590602001909291905050506102da565b604051808573ffffffffffffffffffffffffffffffffffffffff1681526020018473ffffffffffffffffffffffffffffffffffffffff16815260200183815260200182815260200194505050505060405180910390f35b61016e600480360360208110156101425760008061013f6108e9565b50505b81019080803573ffffffffffffffffffffffffffffffffffffffff16906020019092919050505061037a565b6040518082815260200191505060405180910390f35b6101b9600480360360208110156101a3576000806101a06108e9565b50505b8101908080359060200190929190505050610399565b604051808573ffffffffffffffffffffffffffffffffffffffff1681526020018473ffffffffffffffffffffffffffffffffffffffff16815260200183815260200182815260200194505050505060405180910390f35b6102656004803603604081101561022f5760008061022c6108e9565b50505b81019080803573ffffffffffffffffffffffffffffffffffffffff169060200190929190803590602001909291905050506104cf565b005b61026f6108d5565b6040518082815260200191505060405180910390f35b60008060005a610293610957565b73ffffffffffffffffffffffffffffffffffffffff1673ffffffffffffffffffffffffffffffffffffffff1681526020019081526020016000206102d56109b4565b905090565b600181816102e66109b4565b81106102ee57fe5b9060005260206000209060040201600091509050806000016000906103116109b4565b906101000a900473ffffffffffffffffffffffffffffffffffffffff16908060010160009061033e6109b4565b906101000a900473ffffffffffffffffffffffffffffffffffffffff1690806002016103686109b4565b90806003016103756109b4565b905084565b60006020528060005260406000206000915090506103966109b4565b81565b6000806000806001806103aa6109b4565b90508510610429576040517f08c379a00000000000000000000000000000000000000000000000000000000081526004018080602001828103825260138152602001807f496e646578206f7574206f6620626f756e647300000000000000000000000000815250602001915050604051809103906104266108e9565b50505b6000600186816104376109b4565b811061043f57fe5b906000526020600020906004020190508060000160009061045e6109b4565b906101000a900473ffffffffffffffffffffffffffffffffffffffff168160010160009061048a6109b4565b906101000a900473ffffffffffffffffffffffffffffffffffffffff16826002016104b36109b4565b836003016104bf6109b4565b9450945094509450509193509193565b6000811161054e576040517f08c379a000000000000000000000000000000000000000000000000000000000815260040180806020018281038252601d8152602001807f416d6f756e74206d7573742062652067726561746572207468616e20300000008152506020019150506040518091039061054b6108e9565b50505b806000805a61055b610957565b73ffffffffffffffffffffffffffffffffffffffff1673ffffffffffffffffffffffffffffffffffffffff16815260200190815260200160002061059d6109b4565b101561061a576040517f08c379a00000000000000000000000000000000000000000000000000000000081526004018080602001828103825260148152602001807f496e73756666696369656e742062616c616e6365000000000000000000000000815250602001915050604051809103906106176108e9565b50505b806000805a610627610957565b73ffffffffffffffffffffffffffffffffffffffff1673ffffffffffffffffffffffffffffffffffffffff1681526020019081526020016000206000828261066d6109b4565b03925050819061067b610a17565b505050806000808473ffffffffffffffffffffffffffffffffffffffff1673ffffffffffffffffffffffffffffffffffffffff168152602001908152602001600020600082826106c96109b4565b0192505081906106d7610a17565b5050506106e2610a7c565b60405180608001604052805a6106f6610957565b73ffffffffffffffffffffffffffffffffffffffff1681526020018473ffffffffffffffffffffffffffffffffffffffff1681526020018381526020015a61073c610ad0565b815250905060018190806001816107516109b4565b01808261075c610a17565b50508091505060019003906000526020600020906004020160009091909190915060008201518160000160006101000a816107956109b4565b8173ffffffffffffffffffffffffffffffffffffffff021916908373ffffffffffffffffffffffffffffffffffffffff160217906107d1610a17565b50505060208201518160010160006101000a816107ec6109b4565b8173ffffffffffffffffffffffffffffffffffffffff021916908373ffffffffffffffffffffffffffffffffffffffff16021790610828610a17565b50505060408201518160020161083c610a17565b505060608201518160030161084f610a17565b505050508273ffffffffffffffffffffffffffffffffffffffff165a610873610957565b73ffffffffffffffffffffffffffffffffffffffff167f6af891475b82ff839770dcb2e5b7c10771f7b8058868dd11aa25d9187fd14235845a6108b4610ad0565b604051808381526020018281526020019250505060405180910390a3505050565b60006001806108e26109b4565b9050905090565b632a2a7adb598160e01b8152600481016020815285602082015260005b86811015610924578086015181604084010152602081019050610906565b506020828760640184336000905af158601d01573d60011458600c01573d6000803e3d621234565260ea61109c52505050565b6373509064598160e01b8152602081600483336000905af158601d01573d60011458600c01573d6000803e3d621234565260ea61109c528051935060005b60408110156109af57600081830152602081019050610995565b505050565b6303daa959598160e01b8152836004820152602081602483336000905af158601d01573d60011458600c01573d6000803e3d621234565260ea61109c528051935060005b6040811015610a12576000818301526020810190506109f8565b505050565b6322bd64c0598160e01b8152836004820152846024820152600081604483336000905af158601d01573d60011458600c01573d6000803e3d621234565260ea61109c5260005b6040811015610a7757600081830152602081019050610a5d565b505050565b6040518060800160405280600073ffffffffffffffffffffffffffffffffffffffff168152602001600073ffffffffffffffffffffffffffffffffffffffff16815260200160008152602001600081525090565b63bdbf8c36598160e01b8152602081600483336000905af158601d01573d60011458600c01573d6000803e3d621234565260ea61109c528051935060005b6040811015610b2857600081830152602081019050610b0e565b50505056",
  "linkReferences": {},
  "deployedLinkReferences": {}
}